:020000040000fa
:080000000002040000000000f2
:020000040000fa
:10000800cc020000cc020000cc020000cc020000b0
:10001800cc020000cc020000cc020000cc020000a0
:10002800cc020000cc020000cc020000cc02000090
:10003800cc020000cc020000cc0200007e080000c8
:10004800cc020000cc020000cc020000cc02000070
:10005800cc020000cc020000cc020000cc02000060
:10006800cc020000cc020000cc020000cc02000050
:10007800cc020000cc020000cc020000cc02000040
:10008800cc020000cc020000cc020000cc02000030
:10009800cc020000cc020000cc020000cc02000020
:1000a800cc020000e2090000cc020000cc020000f3
:1000b800cc020000cc020000cc020000cc02000000
:1000c800cc020000cc020000cc020000cc020000f0
:1000d800cc020000cc020000cc020000cc020000e0
:1000e800cc020000cc020000cc020000cc020000d0
:1000f800cc020000cc020000cc020000cc020000c0
:10010800cc020000cc020000cc020000cc020000af
:10011800cc020000cc020000cc020000cc0200009f
:10012800cc020000cc020000cc020000cc0200008f
:10013800cc020000cc020000cc020000cc0200007f
:10014800cc020000cc020000cc020000cc0200006f
:10015800cc020000cc020000cc020000cc0200005f
:10016800cc020000cc020000cc020000cc0200004f
:10017800cc020000cc020000cc020000cc0200003f
:10018800cc020000cc020000cc020000cc0200002f
:10019800cc020000cc020000cc020000cc0200001f
:1001a800cc020000cc020000cc020000cc0200000f
:1001b800cc020000cc020000cc020000cc020000ff
:1001c800cc020000cc020000cc020000cc020000ef
:1001d800cc020000cc020000cc020000cc020000df
:1001e800cc020000cc020000cc020000cc020000cf
:1001f800cc020000cc020000cc020000cc020000bf
:10020800cc020000cc020000cc020000cc020000ae
:10021800cc020000cc020000cc020000cc0200009e
:10022800cc020000cc020000cc020000cc0200008e
:10023800cc020000cc020000cc020000cc0200007e
:10024800cc020000cc020000cc020000cc0200006e
:10025800cc020000cc020000cc020000cc0200005e
:10026800cc020000cc020000cc020000cc0200004e
:0c027800cc020000cc020000cc02000010
:020000040000fa
:100400004f0421000eff28000e01880000000000ac
:1004100000012000200288000c00070040a12000fd
:10042000010020000f000700000020000000e00095
:10043000020032000000020000000000fc08020080
:10044000000000000040da000000fe002000200054
:100450000000e0000200320010002000900188003f
:1004600000000600a1028800800078000000eb0078
:100470001a003700e280400054a0b4009101ba0095
:10048000e280400054a0b4009102ba00e280400033
:1004900054a0b4000002eb00472bde00f507b200c9
:1004a000a6018800602ce10008003a000049eb003a
:1004b0000201e800020039003420ec0002f0a00044
:1004c0008301e900f9ff3e00040037006128e100e4
:1004d000010032000082eb00040007001101ba00a5
:1004e0000200e000e3ff3a000000060004d0a30091
:1004f000e20f49001c003900810278003549ba003a
:100500000201e800020039003420ec0002f0a000f3
:100510008301e9000f0032002549ba000201e8001a
:10052000020039003420ec0002f0a0008301e90051
:10053000080032000400e0000600320015c9ba00cd
:100540000201e800020039003420ec0002f0a000b3
:100550008301e9008180e80054a0b4000300e000ba
:10056000e2ff3a00000006009102ba000559780047
:100570008301e900f7ff3200c82ade000559780040
:100580008301e900f3ff32000400e000f1ff3200d4
:1005900011d9ba00eeff37000040da000000fe007b
:1005a0006022b800060220000000d0008180d20046
:1005b0000482d2008582d2000000a0000202520014
:1005c00083825a00030031000202420083824a0003
:1005d0000000a1000603e900f3ff3a000000060056
:020000040000fa
:1005e0000000fa0011e1a9001021a90010c1a90022
:1005f000840880000440a0000450a0008408880003
:100600000002eb0034088800140020006408880011
:100610001442800004c0a00004d0a10004e0a100a6
:100620001442880000e8a90020e8a80011e1a80011
:100630000080fa00000006000800fa0020cea800a2
:1006400020eea800210ea800147180004622de00d2
:10065000614262000482fb00040f78001471800084
:100660004822de00614262000482fb001407980009
:10067000147180004722de00614262000482fb00a8
:10068000240798000042eb00644798001e0278009f
:100690004222dd00844278001e02900004024200e3
:1006a0000442780084c272002e0290000442780056
:1006b00004c27200644798006e4090003cf0b7009e
:1006c0000080fa00000006000000fa00843e2000ce
:1006d000246088000002eb00446188000002eb0007
:1006e000446288000002eb0044638800441f20003d
:1006f00034618800441f200034628800441f2000b9
:100700003463880023cca90043cca90063cca900a2
:1007100011aea900116ea90011eea900156ea80076
:10072000a47080004b22de00614262000482fb0064
:10073000610262004d22dd00a6708000f5ff2d00f1
:100740008502630004827200a4708800a470800097
:100750004d22de00614262000482fb004f22dd0078
:10076000a6708000f5ff27008502630004827200f6
:10077000a47088000002eb0054638800546380007a
:100780005462880054628000546188000002eb00cb
:10079000646388006463800064628800646280002f
:1007a000646188000002eb00046388000463800039
:1007b0000462880004628000046188003400200024
:1007c00024638800246380002462880024628000ff
:1007d000246188000002eb001460880004002800f7
:1007e000046088000080fa00000006000000fa00a3
:1007f00024808000040078000080fa0000000600d9
:100800000600fa00200798001481800025818000ee
:100810004d2bdd004322de0004027300c3aade007c
:10082000040f78002e0290001e0212001407980098
:100830001e0290008402780005f0a7008502ea00fd
:10084000047d2000848f5200020034001e027800d4
:100850002407980016818000278180003481800061
:100860008402420024012100048242001402780024
:10087000cfa2de000403530085835b002e029000ac
:10088000cfa2de000602420087824a00148188005f
:1008900025818800348180008402420024012100e7
:1008a00004824200ae029000050a78003481800084
:1008b0000402e8003481880034818000e80f52008f
:1008c00002003a000002eb003481880014818000ad
:1008d000258180004d2bdd004322de0004027300e1
:1008e000c3aade0004027800040078000080fa0049
:1008f000000006000200fa00004f7800c403210047
:10090000144278009e42780084cf52008b0032005f
:10091000247180004222de00614262000404a200d1
:10092000614262000482fb00610262004222dd003b
:1009300026718000b5ff2f008502630004827200db
:1009400024718800c4032100144278000402fb00d3
:100950006123b9000082eb008082eb0006024200b6
:1009600087824a005600200007002000860f5200b0
:10097000878f5a0049003e00040601002600370018
:100980000f00370019003700390037002d003700fd
:10099000000037001e427800e24f520004003a0087
:1009a000f48180000402e800f48188003c003700f4
:1009b000f48180000402e900f481880038003700e7
:1009c0001e427800e34f520004003a00f481800098
:1009d0000402e800f481880031003700f4818000cf
:1009e0000402e900f48188002d0037001e427800df
:1009f000e14f520004003a00f48180000402e80054
:100a0000f481880026003700f48180000402e900a8
:100a1000f4818800220037001e427800e54f520022
:100a200004003a00f48180000402e800f4818800a8
:100a30001b003700f48180000402e900f481880083
:100a4000170037001e427800e44f520004003a00bd
:100a5000f48180000402e800f4818800100037006f
:100a6000f48180000402e900f48188000c00370062
:100a70001e427800e64f520004003a00f4818000e4
:100a80000402e800f481880005003700f48180004a
:100a90000402e900f4818800010037000000000032
:100aa000f4818000e30f5200050034003400200080
:100ab000f48188001400200034808800070037008b
:100ac000f4818000e30f420004003d00d4ff2f00ba
:100ad000f48188000002eb0034808800748080007c
:100ae000858080000403be00548080006580800003
:100af0000401be000600be00a9fe07000002be0001
:100b000004027800040078003dff0700000278002e
:100b100044808800b9000700000278004413880070
:100b200014002000050020005480880065808800a3
:100b30001e4078003cf0b70006003700548080006b
:100b40006580800061024200e0824a005480880093
:100b5000658088000080fa00000006001800fa0096
:100b6000200f9800310f98002e0a9000040f780093
:100b70002e0a9000140798002e0a9000240798006f
:100b80001400200034079800140020004407980047
:100b90001400200054079800147180004622de00e3
:100ba000614262000482fb006407980014718000b7
:100bb0004822de00614262000482fb007407980054
:100bc000147180004722de00614262000482fb0053
:100bd000040f98000042eb00245798006e0290002a
:100be0004222dd00844278007e029000040242002e
:100bf0000442780084c272000e0a90000442780019
:100c000004c27200245798002e5290000402fb0088
:100c10006123b9000082eb008082eb0006024200f3
:100c200087824a005600200007002000860f5200ed
:100c3000878f5a0025003e0004060100140037008b
:100c4000090037000d0037001b0037001500370082
:100c5000000037000002eb00340798000002eb00b0
:100c600024079800200037000002eb00540798008a
:100c70000002eb00040f78001b0037000002eb00bd
:100c8000440798000002eb00040f780016003700bc
:100c90000002eb00340798000002eb0014079800f4
:100ca000110037000002eb00540798000002eb002f
:100cb000140798000c0037000002eb00440798006e
:100cc0000002eb0024079800070037000002eb0049
:100cd000240798002e029000140798001e0290002e
:100ce000040f7800000000003e0a9000e00f520060
:100cf00018003a001e027800e00f52000300320094
:100d00000002eb00040f7800020037002e0a90006a
:100d1000040f78001e029000e00f52000300320022
:100d20000002eb0014079800020037002e0a900022
:100d3000140798002e029000e00f520003003200ca
:100d40000002eb0024079800020037002e0a9000f2
:100d5000240798003e02900004427800614262003d
:100d60000482fb004f22dd00a6708000f5ff270003
:100d70008502630004827200a47088004e02900015
:100d800004427800614262000482fb00610262005a
:100d90004d22dd00a6708000f5ff2d008502630066
:100da00004827200a47088005e0290000442780001
:100db000614262000482fb00610262004b22dd009e
:100dc000a6708000f57f2f00850263000482720008
:100dd000a47088001e027800346188001e02900012
:100de000346288002e029000346388002e509000f8
:100df000c0fe07000080fa00000006000200fa00b2
:100e000044808000040f780034808000e00f52009e
:100e100001003a001e0fea001e027800040078006c
:100e20000080fa00000006000200fa00000f7800bf
:100e30001e027800e00f5200020034001e0278000b
:100e4000010037001e02ea00040078000080fa006a
:100e5000000006000e00fa00600798006e00900087
:100e6000f1ff070000027800cfa2de0024079800ff
:100e70003507980044808000cfa2de004407980028
:100e80005507980034808000e10f520037003a0087
:100e90006e029000e00f52001b003500be02900071
:100ea000f4032000842ab800ae029000e02bb800c2
:100eb00086027800050242002e039000f503200010
:100ec0000533b8000702420084037800de02900078
:100ed00064ff2f008428b800ce0290000082eb004f
:100ee000842ab80004004000ce02900064ff2f0066
:100ef000042ab8000500400080027800041f430067
:100f000005974b004f003700be029000f40320000d
:100f1000842ab800ae029000e02bb8008602780068
:100f2000050242002e039000f50320000533b800af
:100f300007024200840378005e029000ea20b800b5
:100f40004e029000e022b80004004000ce02900063
:100f5000a4002000042ab8000500400080027800a8
:100f6000041f430005974b00360037006e029000c7
:100f7000e00f52001b003d00be029000f403200071
:100f8000842ab800ae029000e02bb80086027800f8
:100f9000050242002e039000f50320000533b8003f
:100fa0000702420084037800de02900064ff2f00f5
:100fb0008428b800ce0290000082eb00842ab8009a
:100fc00004004000ce02900064ff2f00042ab80005
:100fd0000500400080027800041f430005974b0085
:100fe00018003700be029000f4032000842ab800e5
:100ff000ae029000e02bb8008602780005024200a5
:101000002e039000f50320000533b80007024200cc
:10101000840378005e029000ea20b8004e0290003f
:10102000e022b80004004000ce029000a40020009e
:10103000042ab8000500400080027800041f430025
:1010400005974b00042e2e00050020001e03be0055
:10105000840f5300858f5b000200340024808000e1
:10106000030037006e029000248088006e0290001a
:10107000040078000080fa00000006000200fa0078
:10108000000f7800843e20009e027800848f52007a
:1010900015003c0084c12f009e027800848f52000e
:1010a000130035001e0078006aff07000002780078
:1010b000040f78001e027800e00f520005003d008a
:1010c0001e02ea00048088000002eb001480880001
:1010d000080037001e0278000480880014002000f9
:1010e0001480880003003700000000000100370072
:1010f000000000000080fa00000006003600f80042
:10110000809fbe00829fbe00849fbe00869fbe005f
:101110000000fa00158080000480800085007800bf
:10112000040078008dfe07000002eb003408880000
:1011300000e8a9000080fa004f03be004f02be0085
:101140004f01be004f00be003600f900004006000f
:101150000000fa00a4042000343a8800253a8000f8
:1011600004fe2f0004826200243a8800243a8000a2
:101170000460a1000470a100243a88001600200039
:1011800084072000a509200037742000844b7800d4
:10119000854b7800864b7800143a80000403780071
:1011a0000600a000640420007505200027742000bc
:1011b000844b7800854b7800864b78000000000057
:1011c000153a800004002700848262000400210098
:1011d000848f5200faff3a0000000000153a8000a8
:1011e0000402200004826200e00f5200fbff320084
:1011f0000080fa00000006000000fa00d4ff07009b
:101200003100070030fd07000bfd0700f4fc07006c
:10121000202ea900204ea900244ea800242ea900ab
:10122000ffff37000200fa00000f780014828000f0
:1012300084024200c4022100048242001e0a780097
:10124000148280000402e800148288001482800066
:10125000e80f520002003a000002eb0014828800fe
:101260000080fa00000006000000fa0005828000fd
:1012700014828000848f52000f00320004828000ac
:1012800084024200c4022100048242001402780059
:1012900044128800048280000402e800048288006e
:1012a00004828000e80f520005003a000002eb00c3
:1012b00004828800020037000400280044128800dd
:1012c0000080fa00000006000000fa00153a8000d5
:1012d000f40b2000048362006404200075052000e4
:1012e00027742000844b7800854b7800864b78006b
:1012f0006536800004f82f00048262009401b30078
:101300006436880065368000f40f2800848262000d
:101310000430230004827200643688007536800031
:1013200004f82f00848262004403200004827200cb
:10133000743688000534800004fc2f0004826200ab
:101340000430a00004348800153a80000404200012
:1013500004837200640420007505200027742000b7
:10136000844b7800854b7800864b7800012ea800ce
:10137000206ea800208ea800008ea9000002eb00bd
:10138000441388000428a9002428a9006382a90026
:101390006362a9006342a8006302a80062c2a900b8
:1013a00062a2a9006322a90062e2a80060c2a900ab
:1013b00061e2a8000428a9002428a8000080fa00ff
:1013c000000006003600f800809fbe00829fbe002d
:1013d000849fbe00869fbe000200fa004413800076
:1013e000040f78001e00780024ff070044ed2f0052
:1013f0009e027800848f520002003a00242ea8003a
:1014000001003700242ea9000428a9000080fa005a
:101410004f03be004f02be004f01be004f00be0092
:081420003600f900004006004f
:020000040000fa
:10142800001000002c0000008200000000000100f5
:101438000000000001000000000100000000a00002
:10144800be090000000000000000000000000000cd
:101458000000000000000000000000000000000084
:1014680000000000000000003c1000000400000024
:10147800800000002c100000100000008000000018
:10148800401000000400000082000000000000007e
:0814980000000000000000004c
:020000040000fa
:020000040005f5
:045fe000dfff0000df
:020000040000fa
:020000040005f5
:045fe8007fff000037
:020000040000fa
:020000040005f5
:045fec007fff000033
:020000040000fa
:020000040005f5
:045ff00038ff000076
:00000001FF
