:020000040000fa
:080000000002040000000000f2
:020000040000fa
:10000800cc020000cc020000cc020000cc020000b0
:10001800cc020000cc020000cc020000cc020000a0
:10002800cc020000cc020000cc020000cc02000090
:10003800cc020000cc020000cc020000560a0000ee
:10004800cc020000cc020000cc020000cc02000070
:10005800cc020000cc020000cc020000cc02000060
:10006800cc020000cc020000cc020000cc02000050
:10007800cc020000cc020000cc020000cc02000040
:10008800cc020000cc020000cc020000cc02000030
:10009800cc020000cc020000cc020000cc02000020
:1000a800cc020000bc0b0000cc020000cc02000017
:1000b800cc020000cc020000cc020000cc02000000
:1000c800cc020000cc020000cc020000cc020000f0
:1000d800cc020000cc020000cc020000cc020000e0
:1000e800cc020000cc020000cc020000cc020000d0
:1000f800cc020000cc020000cc020000cc020000c0
:10010800cc020000cc020000cc020000cc020000af
:10011800cc020000cc020000cc020000cc0200009f
:10012800cc020000cc020000cc020000cc0200008f
:10013800cc020000cc020000cc020000cc0200007f
:10014800cc020000cc020000cc020000cc0200006f
:10015800cc020000cc020000cc020000cc0200005f
:10016800cc020000cc020000cc020000cc0200004f
:10017800cc020000cc020000cc020000cc0200003f
:10018800cc020000cc020000cc020000cc0200002f
:10019800cc020000cc020000cc020000cc0200001f
:1001a800cc020000cc020000cc020000cc0200000f
:1001b800cc020000cc020000cc020000cc020000ff
:1001c800cc020000cc020000cc020000cc020000ef
:1001d800cc020000cc020000cc020000cc020000df
:1001e800cc020000cc020000cc020000cc020000cf
:1001f800cc020000cc020000cc020000cc020000bf
:10020800cc020000cc020000cc020000cc020000ae
:10021800cc020000cc020000cc020000cc0200009e
:10022800cc020000cc020000cc020000cc0200008e
:10023800cc020000cc020000cc020000cc0200007e
:10024800cc020000cc020000cc020000cc0200006e
:10025800cc020000cc020000cc020000cc0200005e
:10026800cc020000cc020000cc020000cc0200004e
:0c027800cc020000cc020000cc02000010
:020000040000fa
:10040000cf0521000eff28000e018800000000002b
:1004100000012000200288000c000700e0be200040
:10042000010020000f000700000020000000e00095
:10043000020032000000020000000000de0a02009c
:10044000000000000040da000000fe002000200054
:100450000000e0000200320010002000900188003f
:1004600000000600a1028800800078000000eb0078
:100470001a003700e280400054a0b4009101ba0095
:10048000e280400054a0b4009102ba00e280400033
:1004900054a0b4000002eb00472bde00f507b200c9
:1004a000a6018800602ce10008003a000049eb003a
:1004b0000201e800020039003420ec0002f0a00044
:1004c0008301e900f9ff3e00040037006128e100e4
:1004d000010032000082eb00040007001101ba00a5
:1004e0000200e000e3ff3a000000060004d0a30091
:1004f000e20f49001c003900810278003549ba003a
:100500000201e800020039003420ec0002f0a000f3
:100510008301e9000f0032002549ba000201e8001a
:10052000020039003420ec0002f0a0008301e90051
:10053000080032000400e0000600320015c9ba00cd
:100540000201e800020039003420ec0002f0a000b3
:100550008301e9008180e80054a0b4000300e000ba
:10056000e2ff3a00000006009102ba000559780047
:100570008301e900f7ff3200c82ade000559780040
:100580008301e900f3ff32000400e000f1ff3200d4
:1005900011d9ba00eeff37000040da000000fe007b
:1005a000839f68000100e00002003d006000100031
:1005b000e08018000300e00002003d00600111002f
:1005c000e0811900050007004f00e00002003b0039
:1005d00060001000e0801800000006006022b800f3
:1005e000060220000000d0008180d2000482d200e8
:1005f0008582d2000000a0000202520083825a00cd
:10060000030031000202420083824a000000a10080
:0c0610000603e900f3ff3a0000000600ba
:020000040000fa
:10061c000000fa0011e1a9001021a90010c1a900e5
:10062c00840880000440a0000450a00084088800c6
:10063c000002eb00340888001400200064088800d5
:10064c001442800004c0a00004d0a10004e0a1006a
:10065c001442880000e8a90020e8a80011e1a800d5
:10066c000080fa00000006000800fa0020cea80066
:10067c0020eea800210ea800147180004622de0096
:10068c00614262000482fb00040f78001471800048
:10069c004822de00614262000482fb0014079800cd
:1006ac00147180004722de00614262000482fb006c
:1006bc00240798000042eb00644798001e02780063
:1006cc004222dd00844278001e02900004024200a7
:1006dc000442780084c272002e029000044278001a
:1006ec0004c27200644798006e40900054f0b7004a
:1006fc000080fa00000006000000fa00843e200092
:10070c00246088000002eb00446188000002eb00ca
:10071c00446288000002eb0044638800441f200000
:10072c0034618800441f200034628800441f20007c
:10073c003463880023cca90043cca90063cca90066
:10074c0011aea900116ea90011eea900156ea8003a
:10075c00a47080004b22de00614262000482fb0028
:10076c00610262004d22dd00a6708000f5ff2d00b5
:10077c008502630004827200a4708800a47080005b
:10078c004d22de00614262000482fb004f22dd003c
:10079c00a6708000f5ff27008502630004827200ba
:1007ac00a47088000002eb0054638800546380003e
:1007bc005462880054628000546188000002eb008f
:1007cc0064638800646380006462880064628000f3
:1007dc00646188000002eb000463880004638000fd
:1007ec0004628800046280000461880034002000e8
:1007fc0024638800246380002462880024628000c3
:10080c00246188000002eb001460880004002800ba
:10081c00046088000080fa00000006000000fa0066
:10082c0044808000040078000080fa00000006007c
:10083c000200fa00000f78001e027800e00f520050
:10084c00020034001e027800010037001e02ea008c
:10085c00040078000080fa00000006000000fa0096
:10086c00d4808000e00f52000a00320064808000c7
:10087c0004007800eeff07000002780075d4200019
:10088c00850f52000c003c000002eb00d480880065
:10089c00090037006480800004007800e4ff070042
:1008ac000002780005e12000850f520002003400a0
:1008bc0014002000d48088000080fa00000006009c
:1008cc000800fa00881f7800e4ff0700d48080003d
:1008dc00e00f520004003200441f200024808800e6
:1008ec00242ea8003100370064808000cfa2de00e7
:1008fc00048fbe0054808000e00f520004003a00c8
:10090c001e02be0060021200e0821a00048fbe00bc
:10091c0094808000a58080001e0378008530b8008c
:10092c001e0390008433b8000600400004027800d7
:10093c009e0278000523b800070040008003780071
:10094c000080800011808000b4808000c580800011
:10095c008409b800802cb80088017800030141009c
:10096c0000007800040278000402b8000501410080
:10097c00820278000602420087824a00240798000f
:10098c00350798002e029000be029000420620000f
:10099c00030020000400be00fefe07000002be00a3
:1009ac000402780004007800860207004f047800e7
:1009bc000080fa00000006000600fa0020079800ec
:1009cc0084818000958180004d2bdd004322de0068
:1009dc0004027300c3aade00040f78002e029000fc
:1009ec001e021200140798001e0290008402780068
:1009fc0005f0a7008502ea00047d2000848f5200d8
:100a0c00020034001e0278002407980086818000c2
:100a1c0097818000a481800084024200040221009e
:100a2c000482420014027800cfa2de0004035300bb
:100a3c0085835b002e029000cfa2de0006024200ee
:100a4c0087824a008481880095818800a481800077
:100a5c00840242000402210004824200ae02900093
:100a6c00050a7800a48180000402e800a4818800b3
:100a7c00a4818000e80f520002003a000002eb0053
:100a8c00a481880084818000958180004d2bdd003d
:100a9c004322de0004027300c3aade0004027800c5
:100aac00040078000080fa00000006000200fa0042
:100abc00004f780044052100144278009e427800d3
:100acc0084cf52008b003200247180004222de0061
:100adc00614262000404a200614262000482fb00d5
:100aec00610262004222dd0026718000b5ff2f00fa
:100afc008502630004827200247188004405210081
:100b0c00144278000402fb006123b9000082eb0060
:100b1c008082eb000602420087824a0056002000c9
:100b2c0007002000860f5200878f5a0049003e00b4
:100b3c0004060100260037000f00370019003700ab
:100b4c00390037002d003700000037001e427800b6
:100b5c00e24f520004003a00b48280000402e80024
:100b6c00b48288003c003700b48280000402e900a3
:100b7c00b4828800380037001e427800e34f5200e0
:100b8c0004003a00b48280000402e800b4828800b9
:100b9c0031003700b48280000402e900b48288007e
:100bac002d0037001e427800e14f520004003a003d
:100bbc00b48280000402e800b4828800260037006a
:100bcc00b48280000402e900b4828800220037005d
:100bdc001e427800e54f520004003a00b4828000b7
:100bec000402e800b48288001b003700b482800045
:100bfc000402e900b4828800170037001e42780016
:100c0c00e44f520004003a00b48280000402e80071
:100c1c00b482880010003700b48280000402e9001e
:100c2c00b48288000c0037001e427800e64f520058
:100c3c0004003a00b48280000402e800b482880008
:100c4c0005003700b48280000402e900b4828800f9
:100c5c000100370000000000b4828000e30f520056
:100c6c000500340034002000b482880014002000f9
:100c7c005480880007003700b4828000e30f4200e4
:100c8c0004003d00d4ff2f00b48288000002eb006a
:100c9c0054808800e4808000f58080000403be004e
:100cac0074808000858080000401be000600be00b8
:100cbc0047fe07000002be00040278000400780022
:100ccc003dff0700000278006480880028010700bf
:100cdc000002780044138800140020000500200056
:100cec0074808800858088001e40780054f0b7001e
:100cfc00060037007480800085808000610242000d
:100d0c00e0824a0074808800858088000080fa00a8
:100d1c00000006000a00fa0010079800210798004e
:100d2c0032079800430798003e029000ce029000d4
:100d3c00e00f5200e08f5a000b003a0095708000d3
:100d4c000420200004826200e00f520003003200f5
:100d5c00803e20009b0107002400370080c12f003b
:100d6c009801070021003700ae029000843e20005d
:100d7c00842bb8001e029000e022b800040343004c
:100d8c009e029000843e2000042ab8000503430014
:100d9c00860278001e009000ae0090003e0390008a
:100dac00ce0390000003430081834b000601be007c
:100dbc000400be00f7fd07000002be00040f78001f
:100dcc00957080000420200004826200e00f520025
:100ddc00030032001e0078007a0107000300370080
:100dec001e02ea0004007800760107000080fa0079
:100dfc00000006000000fa00f4818000e10f5200b0
:100e0c0015003a00957080000408200004826200ee
:100e1c00e00f520007003200b4818000c5818000d1
:100e2c0061024200e0824a00b4818800c5818800da
:100e3c0025003700d4818000e581800061024200ea
:100e4c00e0824a00d4818800e58188000002eb0032
:100e5c00f48188001c003700957080000408200085
:100e6c0004826200e00f520011003200d481800035
:100e7c00e5818000b6818000c78180000401be003e
:100e8c000600be00a3ff0700140020000500200090
:100e9c00b4818800c58188006022b800d4818800a4
:100eac00e58188000002eb00f48188000600370021
:100ebc00d4818000e581800061024200e0824a001a
:100ecc00d4818800e58188000080fa0000000600cb
:100edc001800fa00200f9800310f98002e0a90008d
:100eec00040f78002e0a9000140798002e0a900028
:100efc0024079800140020003407980014002000e8
:100f0c0044079800140020005407980014718000c6
:100f1c004622de00614262000482fb0064079800f6
:100f2c00147180004822de00614262000482fb00e2
:100f3c0074079800147180004722de006142620041
:100f4c000482fb00040f98000042eb002457980029
:100f5c006e0290004222dd00844278007e029000f6
:100f6c00040242000442780084c272000e0a90000f
:100f7c000442780004c27200245798002e5290004c
:100f8c000402fb006123b9000082eb008082eb00bd
:100f9c000602420087824a0056002000070020000b
:100fac00860f5200878f5a0025003e000406010070
:100fbc0014003700090037000d0037001b00370004
:100fcc0015003700000037000002eb0034079800d2
:100fdc000002eb0024079800200037000002eb0011
:100fec00540798000002eb00040f78001b00370038
:100ffc000002eb00440798000002eb00040f78009d
:10100c00160037000002eb00340798000002eb00da
:10101c0014079800110037000002eb0054079800e9
:10102c000002eb00140798000c0037000002eb00e4
:10103c00440798000002eb002407980007003700d3
:10104c000002eb00240798002e0290001407980071
:10105c001e029000040f7800000000003e0a900071
:10106c00e00f520018003a001e027800e00f520008
:10107c00030032000002eb00040f7800020037007e
:10108c002e0a9000040f78001e029000e00f520010
:10109c00030032000002eb00140798000200370036
:1010ac002e0a9000140798002e029000e00f5200b8
:1010bc00030032000002eb00240798000200370006
:1010cc002e0a9000240798003e02900004427800fb
:1010dc00614262000482fb004f22dd00a67080009a
:1010ec00f5ff27008502630004827200a47088005b
:1010fc004e02900004427800614262000482fb00c0
:10110c00610262004d22dd00a6708000f5ff2d000b
:10111c008502630004827200a47088005e02900055
:10112c0004427800614262000482fb0061026200aa
:10113c004b22dd00a6708000f57f2f008502630036
:10114c0004827200a47088001e027800346188004a
:10115c001e029000346288002e02900034638800d6
:10116c002e50900051fe07000080fa00000006008f
:10117c000200fa0064808000040f78005480800024
:10118c00e00f520001003a001e0fea001e02780028
:10119c00040078000080fa00000006000e00fa003f
:1011ac00600798006e009000a1fd07000002780017
:1011bc00cfa2de00240798003507980064808000d9
:1011cc00cfa2de0044079800550798005480800099
:1011dc00e10f520037003a006e029000e00f52000f
:1011ec001b003500be029000f4032000842ab800d6
:1011fc00ae029000e02bb800860278000502420097
:10120c002e039000f50320000533b80007024200be
:10121c0084037800de02900064ff2f008428b8005d
:10122c00ce0290000082eb00842ab800040040003b
:10123c00ce02900064ff2f00042ab8000500400085
:10124c0080027800041f430005974b004f003700c5
:10125c00be029000f4032000842ab800ae02900075
:10126c00e02bb80086027800050242002e039000a5
:10127c00f50320000533b800070242008403780010
:10128c005e029000ea20b8004e029000e022b80006
:10129c0004004000ce029000a4002000042ab800f4
:1012ac000500400080027800041f430005974b00a6
:1012bc00360037006e029000e00f52001b003d001c
:1012cc00be029000f4032000842ab800ae02900005
:1012dc00e02bb80086027800050242002e03900035
:1012ec00f50320000533b8000702420084037800a0
:1012fc00de02900064ff2f008428b800ce0290001c
:10130c000082eb00842ab80004004000ce0290005a
:10131c0064ff2f00042ab80005004000800278000a
:10132c00041f430005974b0018003700be029000c5
:10133c00f4032000842ab800ae029000e02bb80021
:10134c0086027800050242002e039000f50320006f
:10135c000533b80007024200840378005e02900057
:10136c00ea20b8004e029000e022b80004004000d1
:10137c00ce029000a4002000042ab8000500400012
:10138c0080027800041f430005974b00042e2e00aa
:10139c00050020001e03be00840f5300858f5b00e8
:1013ac000200340044808000030037006e0290007d
:1013bc00448088006e029000040078000080fa00df
:1013cc00000006000200fa00000f7800843e2000a6
:1013dc009e027800848f520015003c0084c12f00bf
:1013ec009e027800848f5200130035001e00780096
:1013fc006aff070000027800040f78001e027800d4
:10140c00e00f520005003d001e02ea002480880017
:10141c000002eb0034808800080037001e027800c0
:10142c0024808800140020003480880003003700da
:10143c000000000001003700000000000080fa00ee
:10144c00000006000400fa00008fbe00c45d2000fe
:10145c00050020001e03be00840f5300858f5b0027
:10146c000a003c0044a22f00f5ff2f001e03be0013
:10147c00840f5300858f5b00060035001e02be00f2
:10148c0004808800158088000300370000000000ed
:10149c0001003700000000000080fa000000060088
:1014ac003600f800809fbe00829fbe00849fbe0065
:1014bc00869fbe000000fa003580800024808000ea
:1014cc00850078000400780081fe07000002eb0024
:1014dc003408880000e8a9000080fa004f03be0021
:1014ec004f02be004f01be004f00be003600f90097
:1014fc00004006000000fa00a4042000343a8800e2
:10150c00253a800004fe2f0004826200243a8800f1
:10151c00243a80000460a1000470a100243a8800e1
:10152c001600200084072000a50920003774200035
:10153c00844b7800854b7800864b7800143a8000f9
:10154c00040378000600a000640420007505200048
:10155c0027742000844b7800854b7800864b7800ec
:10156c0000000000153a800004002700848262000d
:10157c0004002100848f5200faff3a0000000000a2
:10158c00153a80000402200004826200e00f520031
:10159c00fbff32000080fa00000006000000fa0099
:1015ac0010eea800112ea8000080fa000000060022
:1015bc000000fa00cfff0700202ea900204ea90042
:1015cc00244ea800242ea800ffff37000200fa00ca
:1015dc00000f7800d4828000840242004404210071
:1015ec00048242001e0a7800d48280000402e800c3
:1015fc00d4828800d4828000e80f520002003a00a6
:10160c000002eb00d48288000080fa000000060083
:10161c000000fa00c5828000d4828000848f5200c2
:10162c000f003200c4828000840242004404210076
:10163c00048242001402780044128800c4828000a4
:10164c000402e800c4828800c4828000e80f5200c3
:10165c0005003a000002eb00c4828800020037004b
:10166c0004002800441288000080fa0000000600e4
:10167c000000fa00153a8000f40b2000048362008d
:10168c00640420007505200027742000844b78002a
:10169c00854b7800864b78006536800004f82f0067
:1016ac00048262009401b3006436880065368000c1
:1016bc00f40f28008482620004302300048272003c
:1016cc00643688007536800004f82f00848262002e
:1016dc0044032000048272007436880005348000b4
:1016ec0004fc2f00048262000430a0000434880043
:1016fc00153a800004042000048372006404200066
:10170c007505200027742000844b7800854b7800e9
:10171c00864b7800012ea800206ea800208ea80011
:10172c00008ea9000002eb00441388000428a900d5
:10173c002428a9006382a9006362a9006342a8005f
:10174c006302a80062c2a90062a2a9006322a900d8
:10175c0062e2a80060c2a90061e2a8000428a90006
:10176c002428a8000080fa00000006003600f800cb
:10177c00809fbe00829fbe00849fbe00869fbe00dd
:10178c000200fa0044138000040f78001e00780059
:10179c000cff0700441f20009e027800848f52002b
:1017ac0002003a00242ea80001003700242ea900c4
:1017bc000428a9000080fa004f03be004f02be00af
:1017cc004f01be004f00be003600f900004006007d
:020000040000fa
:1017dc000010000044000000820000000000000027
:1017ec0000000000010000000001000000000100ea
:1017fc000000000010000000000d000000000000c0
:10180c0000568d00070000000000000000000000e2
:10181c0000000000000000000000000000000000bc
:10182c0000000000000000000000000000000000ac
:10183c000000000000000000541000000400000034
:10184c008000000044100000100000008000000028
:10185c00581000000400000082000000000000008e
:08186c00000000000000000074
:020000040000fa
:020000040005f5
:045fe000dfff0000df
:020000040000fa
:020000040005f5
:045fe8007fff000037
:020000040000fa
:020000040005f5
:045fec007fff000033
:020000040000fa
:020000040005f5
:045ff00038ff000076
:00000001FF
