:020000040000fa
:080000000002040000000000f2
:020000040000fa
:10000800cc020000cc020000cc020000cc020000b0
:10001800cc020000cc020000cc020000cc020000a0
:10002800cc020000cc020000cc020000cc02000090
:10003800cc020000cc020000cc0200003a0500000f
:10004800cc020000cc020000cc020000cc02000070
:10005800cc020000cc020000cc020000cc02000060
:10006800cc020000cc020000cc020000cc02000050
:10007800cc020000cc020000cc020000cc02000040
:020000040000fa
:100400000f0021000eff28000e01880000000000f0
:1004100000012000200288000c0007002057200067
:10042000010020000f000700000020000000e00095
:10043000020032000000020000000000600502001f
:10044000000000000040da000000fe002000200054
:100450000000e0000200320010002000900188003f
:1004600000000600a1028800800078000000eb0078
:100470001a003700e280400054a0b4009101ba0095
:10048000e280400054a0b4009102ba00e280400033
:1004900054a0b4000002eb00472bde00f507b200c9
:1004a000a6018800602ce10008003a000049eb003a
:1004b0000201e800020039003420ec0002f0a00044
:1004c0008301e900f9ff3e00040037006128e100e4
:1004d000010032000082eb00040007001101ba00a5
:1004e0000200e000e3ff3a000000060004d0a30091
:1004f000e20f49001c003900810278003549ba003a
:100500000201e800020039003420ec0002f0a000f3
:100510008301e9000f0032002549ba000201e8001a
:10052000020039003420ec0002f0a0008301e90051
:10053000080032000400e0000600320015c9ba00cd
:100540000201e800020039003420ec0002f0a000b3
:100550008301e9008180e80054a0b4000300e000ba
:10056000e2ff3a00000006009102ba000559780047
:100570008301e900f7ff3200c82ade000559780040
:100580008301e900f3ff32000400e000f1ff3200d4
:1005900011d9ba00eeff37000040da000000fe007b
:020000040000fa
:1005a0000000fa00a4042000343a8800253a8000b4
:1005b00004fe2f0004826200243a8800243a80005e
:1005c0000460a1000470a100243a880016002000f5
:1005d00084072000a509200037742000844b780090
:1005e000854b7800864b7800143a8000040378002d
:1005f0000600a00064042000750520002774200078
:10060000844b7800854b7800864b78000000000012
:10061000153a800004002700848262000400210053
:10062000848f5200faff3a0000000000153a800063
:100630000402200004826200e00f5200fbff32003f
:100640000080fa00000006000000fa0011e1a90095
:100650001021a90004c1a900840880000440a00062
:100660000450a000840888000002eb0034088800d1
:1006700014002000640888001442800004c0a00018
:1006800004d0a10004e0a1001442880000e8a90001
:1006900020e8a80011e1a8000080fa000000060090
:1006a0000000fa0020cea80020eea800210ea8002d
:1006b0000080fa00000006000000fa00843e2000de
:1006c000246088000002eb00446188000002eb0017
:1006d000446288000002eb0044638800441f20004d
:1006e00034618800441f200034628800441f2000c9
:1006f0003463880023cca90043cca90063cca900b3
:1007000011aea900116ea90011eea900156ea80086
:10071000a47080004b22de00614262000482fb0074
:10072000610262004d22dd00a6708000f5ff2d0001
:100730008502630004827200a4708800a4708000a7
:100740004d22de00614262000482fb004f22dd0088
:10075000a6708000f5ff2700850263000482720006
:10076000a47088000002eb0054638800546380008a
:100770005462880054628000546188000002eb00db
:10078000646388006463800064628800646280003f
:10079000646188000002eb00046388000463800049
:1007a0000462880004628000046188003400200034
:1007b000246388002463800024628800246280000f
:1007c000246188000002eb00146088000400280007
:1007d000046088000080fa00000006001800fa009b
:1007e000200f9800310f98002e0a9000040f780017
:1007f0002e0a9000140798002e0a900024079800f3
:1008000014002000340798001400200044079800ca
:100810001400200054079800147180004622de0066
:10082000614262000482fb0064079800147180003a
:100830004822de00614262000482fb0074079800d7
:10084000147180004722de00614262000482fb00d6
:10085000040f98000042eb00245798006e029000ad
:100860004222dd00844278007e02900004024200b1
:100870000442780084c272000e0a9000044278009c
:1008800004c27200245798002e5290000402fb000c
:100890006123b9000082eb008082eb000602420077
:1008a00087824a005600200007002000860f520071
:1008b000878f5a0025003e0004060100140037000f
:1008c000090037000d0037001b0037001500370006
:1008d000000037000002eb00340798000002eb0034
:1008e00024079800200037000002eb00540798000e
:1008f0000002eb00040f78001b0037000002eb0041
:10090000440798000002eb00040f7800160037003f
:100910000002eb00340798000002eb001407980077
:10092000110037000002eb00540798000002eb00b2
:10093000140798000c0037000002eb0044079800f1
:100940000002eb0024079800070037000002eb00cc
:10095000240798002e029000140798001e029000b1
:10096000040f7800000000003e0a9000e00f5200e3
:1009700018003a001e027800e00f52000300320017
:100980000002eb00040f7800020037002e0a9000ee
:10099000040f78001e029000e00f520003003200a6
:1009a0000002eb0014079800020037002e0a9000a6
:1009b000140798002e029000e00f5200030032004e
:1009c0000002eb0024079800020037002e0a900076
:1009d000240798003e0290000442780061426200c1
:1009e0000482fb004f22dd00a6708000f5ff270087
:1009f0008502630004827200a47088004e02900099
:100a000004427800614262000482fb0061026200dd
:100a10004d22dd00a6708000f5ff2d0085026300e9
:100a200004827200a47088005e0290000442780084
:100a3000614262000482fb00610262004b22dd0021
:100a4000a6708000f57f2f0085026300048272008b
:100a5000a47088001e027800346188001e02900095
:100a6000346288002e029000346388000080fa000f
:100a7000000006003600f800809fbe00829fbe0086
:100a8000849fbe00869fbe000000fa001100200077
:100a9000c012200051ff07000002eb00340888005c
:100aa00000e8a9000080fa004f03be004f02be001c
:100ab0004f01be004f00be003600f90000400600a6
:100ac0000000fa00b6fe0700f5fe0700fafe070078
:100ad000ddfe0700202ea900204ea900242ea9002b
:040ae000ffff3700dd
:020000040000fa
:040ae400000000000e
:020000040000fa
:020000040005f5
:045fe000dfff0000df
:020000040000fa
:020000040005f5
:045fe8007fff000037
:020000040000fa
:020000040005f5
:045fec007fff000033
:020000040000fa
:020000040005f5
:045ff00038ff000076
:00000001FF
